:100000001CC42BC42AC429C428C41EC926C425C4A0
:1000100024C423C422C421C420C41FC41EC4000E8F
:100020000909090E00F01010101010F0F0103070D7
:100030003010F0040E0909090E00000E0909090E1E
:1000400004082A146B142A0800220855082200000C
:1000500041000800410000000000000000000040D6
:10006000100410400000000000000000000000002C
:100070000205080190210000000000000021900905
:100080000005020000000000000000081208040241
:100090000001000204081208000000000000000037
:1000A0000000000000000080E0F8E0800000000098
:1000B0000000000000000000000206060E9EFEFF89
:1000C000FFFFFFFFFEFE9E0E060202000000000082
:1000D000000000000C070301010000010303070CEE
:1000E000000000000000601818600000B8A8E800D8
:1000F000F8888800F888F800F848B800F8A8880060
:1001000000000000000000000000000000000000EF
:100110000000000000000000000028102810281037
:100120002810281028102810281028102800000057
:1001300000B8A8E800F8283800F8A8A800F8A888AF
:1001400000F8887000000000F820F80000000000AF
:100150000000000000000000000000000000007827
:10016000C078000000000000000000000000000057
:10017000000000000000F828080000000000000057
:10018000000000000000000000000000000000006F
:10019000000000000000000000000000000000005F
:1001A000000000F888F80000F80000E8A8B800880F
:1001B000A8F8003820F800B8A8E800F8A8E8000877
:1001C000E81800F8A8F800B8A8F80020702000206F
:1001D00020200000000000000000000000000000DF
:1001E000000000000000000000000000000000000F
:1001F00000000000000000000000000000000000FF
:1002000000000000000000000000000000000000EE
:1002100000000000000000000000000000000000DE
:1002200000000000000000000000000000000000CE
:10023000000000000000000080000000000000003E
:100240000000000000001E301E00003E0020003EA6
:10025000223E00000080808080808080808000803E
:10026000808080000000000000000000000000000E
:10027000000000000000000000000000000000007E
:10028000000000000000000000000000000000006E
:10029000000000000000000000000000000000005E
:1002A000000000000000000000000000B8FCFCFCA2
:1002B000FCB8808080808080FF8280800000000009
:1002C000000000000000000000000000000000002E
:1002D0000000000000030303FFFFFF03030300FD12
:1002E000FDFDFD0000FCFCFC1C1C1CF8F8F0001CD3
:1002F000FCFCF800C0FCFC3C00000000000000001A
:1003000000000000000000000000000000000000ED
:1003100000000000000000000000000000000000DD
:100320000000000000E0F0F8FCFEFFFF7F3F3F3FD1
:100330003F3F3F7FFFFFFFFFFFFFFFFFFFFEFCF898
:10034000F0E0C0000000000000000000000000001D
:100350000000000000000000FFFFFF00000000FFA1
:10036000FFFFFF0000FFFFFF000000FFFFFF000096
:10037000033FFFF0FF7F03000000000000000000CB
:10038000000000000000000000000000000000006D
:10039000000000000000000000000000000000005D
:1003A0000000000000FFFFFFFFFF810000000000D1
:1003B000000000000081FFFFFFFFFF81818187FFB8
:1003C000FFFFFF0000000000000000000000000030
:1003D000000000000000000000000000000000001D
:1003E000000000000000000000000000000000000D
:1003F00007070703010000000000000000000000E4
:1004000000000000000000000000000000000000EC
:1004100000000000000000000000000000000000DC
:10042000000000000003070F1F3F7FFFFEFCFCFCE5
:10043000FC7C7C7EFFFF7F7F7F7FFFFFFF7F3F1F76
:100440000F07030000000000000000000000000093
:10045000000000000000F8F8F8F8000000000000BC
:1004600080C0C0C0C0C0C0800000C0C0C08080C00C
:10047000C0C0800000008080C0C0C0F8F8F8000054
:100480000080C0C0C0C0C080000000C0C0C00080EC
:10049000C0C00000000000000000000000000000DC
:1004A00080E0783E0F071F7FFFFFFFFFFFFFFFFF8A
:1004B000FFAFDFAFDFAFDFAFFFFFFFFFFFFFFFFFEC
:1004C0007F1F070F1E78E080000000000000000082
:1004D000000000000000FFFFFFFF0000000000C060
:1004E000E3F3F3381CFFFFFF0000FFFFFFFF0101F4
:1004F000FFFFFF0000FFFFFF030101FFFFFF000000
:10050000FFFFFF1918199F9F9F0000FFFFFF0703C0
:1005100003030000000000000000000080E0F83E3F
:100520001F0D0C040606030301010101010101C1B5
:10053000F1FFFFFFFFFFFFF1C10101010101010117
:1005400003030606040C0D1F3EF8E08000000000C7
:100550000000000000000F0F0F0F0E0E0E0E000324
:10056000070F0F0C040F0F0F00000F0F0F0F0000ED
:100570000F0F0F000003070F0E0C0C0F0F0F0000E2
:1005800003070F0E0C0E0F070300000F0F0F0000E4
:1005900000000000000000040C0C1C1E1F1F0C0CAF
:1005A0000400000000000000000000000000000146
:1005B0000101010101010101010000000000000032
:1005C00000000000000000040C0C1F1F1E1C0C0C7F
:1005D0000400003F2C20160C0604060A1210140C0E
:1005E00024261E1C1A0A02000000020A1C283F3F93
:1005F0003F3F3F3F3F3F3F3F3F3F3F3F3F3F3F3F0B
:100600003F3F3F3F3F3F3F3F3F3F0A0000000E124A
:100610000E1E1410130C191E1E1B1C1A04010104BB
:10062000040A0F3F3F3F3F2D28323F3F3F3F373FB8
:100630003F3F3F32372D323F3F3F3F373C3C3F014A
:1006400001090F12141614120F090101090F1214D7
:100650001614120F0901000000002626263F3F3F16
:100660003F3A35302B262B30353A3F3F3F3F262649
:1006700026262626263F281E140F0C0A0C0F141EB1
:10068000282D2E2D241E1C0F0A0500000000043FFB
:100690003F3F3F3F373F3C3F3F3F3F3F3F3F3F3F75
:1006A0003F3F372D281E1E3F3F3F3F1E02030302E0
:1006B0000C0C0114140F0A070505070C1416161666
:1006C0001612000000001E363C3232283B2830282B
:1006D0002D32353737352F282626263C263C22203A
:1006E0001905030202050C0A0C0F282A2800000035
:1006F000282D280A08050202020708093F373F3F54
:10070000373F373F3F3C3F3F3F3F3F3F3F3F37371C
:1007100039393F3F3F3F3F000000001417011716D3
:100720000114131201100F010D0C0B0A010807062A
:100730000504141E24243E2424253F2728292A3F6B
:100740002C3F2E2F3F31323E343F3637382323198A
:10075000050505050A0A05051E282D2D281E142845
:1007600014143000000007283F3F3F3F3F231E1E68
:100770003F3F3F3F3F3F3F3F3F3F3F3F3F3F3F3F89
:100780003F3F3F2D2D2D14141401010101010101E2
:1007900001010114010101010123000000003F3F9C
:1007A0003F3E3E3E3F28283F3C14283F3F3F3F28E6
:1007B000283F3F3F3F3D3D3D3D01010105292C299B
:1007C000050101010101010105292C290501010291
:1007D000010000002D3F373F3F3C3F3F3F3B221190
:1007E000223B3F3F3F3B3F3F3F3B17143717192CFE
:1007F00021960A4B6E2196144B221E9614322A190A
:100800006428141D2864281423284B3C0A711E7880
:100810003C0A1C0A96780A1E0596780A1A3196F048
:10082000050000000038000000000037000202024E
:100830000202020102040810200011241FBECFE5AD
:10084000D2E0DEBFCDBF20E0A0E6B0E001C01D9247
:10085000A936B207E1F742D5B3C8D2CB8F7787B9B3
:1008600087B187B9369A3699FECF84B195B108958C
:100870003FB7F8948091650090916600A091670061
:10088000B091680022B708B601FE05C02F3F19F0ED
:100890000196A11DB11D3FBFBA2FA92F982F882700
:1008A000BC01CD01620F711D811D911D42E0660FDB
:1008B000771F881F991F4A95D1F70895CF92DF922D
:1008C000EF92FF92CF93DF936B017C01D1DFEB01BD
:1008D000CFDF6C1B7D0B683E7340A0F0C114D104C8
:1008E000E104F10439F4DF91CF91FF90EF90DF90B4
:1008F000CF90089581E0C81AD108E108F108C851E5
:10090000DC4FE6CFC114D104E104F10409F7EBCFC9
:10091000CF92DF92EF92FF920F931F93CF939C01A0
:10092000FB0160E177E225D8462F972F6483862F5D
:1009300060E177E20DD87C01C9018E199F0968EE4C
:1009400073E017D8C62F972F6383862F68EE73E066
:10095000FFD76C01C9018C199D098E199F0964E6A6
:1009600070E007D88B016283CB01992764E670E0C1
:10097000EFD7B901681B790BCB018C199D098E1932
:100980009F096AE070E0F5D7862F61836AE0D7D7C8
:10099000281B802F64E6D3D7281B8C2F68EECFD777
:1009A000281B4295407F241B2083CF911F910F91DC
:1009B000FF90EF90DF90CF9008952130D9F464300C
:1009C00091F59BEF980F903170F5682F6550770B7C
:1009D0009B01943098F4FA019581E92FF0E03A9662
:1009E000EE0FFF1FEE0FFF1FE20FF31FED55FE4F3F
:1009F000249102C0653029F3822F0895759567957B
:100A000075956795461B570BFA019381E92FF0E026
:100A1000EE0FFF1FEE0FFF1F660F771F660F771F8A
:100A2000261B370BE1CF20E0E7CF28E0C29887FDF7
:100A3000C09A87FFC098C29A880F2A95B9F7C298C2
:100A4000C09AB898C29AC298B89AC0980895C098A7
:100A5000C29AC09A0895C09AC29AC098C29808953E
:100A6000CF93C82FF8DF88E7E0DF80E0DEDF8C2F50
:100A70008770806BDADF80E0D8DF80E1D6DFE7DFE8
:100A8000EADF88E7D2DF80E4CF91CFCF86B38695C7
:100A9000817090E00895CF93DF9387FF07C08F7731
:100AA00069F1813069F1823069F183E090E0FC0105
:100AB000ED5CF74F2491835D974FFC01849188236F
:100AC000D1F090E0880F991FFC01E95DF74FA591E7
:100AD000B491FC01EF5DF74FC591D491611114C041
:100AE0009FB7F8948C91E22FE0958E238C93288108
:100AF000E223E8839FBFDF91CF91089585E0D6CFB1
:100B000082E0D4CF84E0D2CF8FB7F894EC91E22B7F
:100B1000EC938FBFF0CF90E02FEF30E0281B31092E
:100B20008111C49A40E04217130634F455E05A95F7
:100B3000F1F700004F5FF7CFC49840E0421713066B
:100B400034F455E05A95F1F700004F5FF7CF9F5FFF
:100B50006913E6CF089564E686E9DDDF2FEF81EEC5
:100B600094E0215080409040E1F700C000006AE529
:100B700086E9D1DF2FEF81EE94E021508040904054
:100B8000E1F700C0000064E686E9C5CFEF92FF926E
:100B90000F931F93CF93DF93EA019C81092F069552
:100BA000069506959770F92E061759F0402F50E0DC
:100BB0004F5F5F4F6417150609F072C0992309F45F
:100BC0006FC09B81482F491B550B9A014730510537
:100BD00008F066C0E62E4D89442321F188E090E0BC
:100BE000841B910967E070E0B3D6FC01E20FF31FAC
:100BF000E25EFF4F1491842F64E1A1D66AE08BDF9F
:100C00008D89815069F08D8BF11030C00E1148C074
:100C1000812FDF91CF911F910F91FF90EF90089559
:100C200083E0F1CF8E81F901ED5CFF4F811106C0A9
:100C30008F81F9018823B9F0E65CFF4F14918D8113
:100C4000882359F08C89882341F088859985F9019A
:100C5000E45DFF4F181619061CF0F901EB5DFF4F1C
:100C6000E4911E2BD1CFE25EFF4FE8CF0E1105C0FD
:100C700001C0110FFA94EAF7CBCF802F90E00196D4
:100C8000E816190669F4E12FF0E088E090E08F198A
:100C9000910902C0F595E7958A95E2F71E2FB8CF26
:100CA00010E0B6CF2F923F924F925F926F927F9259
:100CB0008F929F92AF92BF92CF92DF92EF92FF926C
:100CC0000F931F93CF93DF93CDB7DEB72C970FB65B
:100CD000F894DEBF0FBECDBF8E837B016A01190180
:100CE00038012EEF2983912C812C1C8653E0A52EF0
:100CF0008C85B6DEC40168E170E02AD6C0979A8779
:100D00008987C40167E170E023D6A40123E0440F82
:100D1000551F2A95E1F75D834C8310E000E0855173
:100D20009F4F98878F83C4019695982F8827979512
:100D30008795BC016D527E4F7B836A834FE3B42E4F
:100D40000B870038110509F448C27E81711194C1E6
:100D5000073108F468C2073109F495C00F3709F468
:100D600092C0A02FA751BA2FB3702A2F269526958F
:100D700030E0F701818D8158880F90E06BE170E0E1
:100D8000E7D5F901E80FF91FED52FA4FE4917B2DF9
:100D90007E1BAC01455E5F4FF901E40FF51FED527C
:100DA000FA4FE4915B2C5E1ABB2371F12F5F3F4F2A
:100DB0007F33A8F4820F931FFC01ED52FA4FE491A8
:100DC0008B2D8E1B871B990B97FD0396FC01F595C8
:100DD000E795F595E7958B2F6E2FB1D5780F240FFA
:100DE000351FF901ED52FA4FE4918B2D8E1B8519B9
:100DF000990B97FD03969C01359527953595279579
:100E00008B2F622F9CD5580E472F469546954695B9
:100E1000952D969596959695FC854F132AC07F3310
:100E200051F4E8E54E2EA0FD02C088EB482E6C85FB
:100E3000961326C00BC02C81721B44244A9401C017
:100E4000440C7A95EAF73C8593131AC0252D30E0BF
:100E50006C817D81261B370BA7E0B0E0A21BB30B92
:100E6000EFEFF0E002C0F595E795AA95E2F74E2A7C
:100E700004C05C85412C951749F3FC854F1718F089
:100E80002C85291710F444244A94A7016C858B857E
:100E90007DDE3C85373009F0C3C0D7015B966C918D
:100EA0005B9770E06A5E7F4F601771070CF0B8C007
:100EB0005C962C915C9730E0A901495E5F4F40172A
:100EC00051070CF4ADC0882309F4CBC0482F50E083
:100ED00044505F4F982F9C6F9417150609F4C1C0BA
:100EE0001C964D915C911D974D5D5F4F47345105A8
:100EF00008F083C013964C91139750E06417750760
:100F00000CF07BC0205F3F4F241735070CF475C0F1
:100F100091E057969C93482A8B858150843108F044
:100F2000A7C0D7015D962C91C801019765E070E0DC
:100F300034D52617170609F00CF49AC0FC01EA51C3
:100F4000FF4FE4914E2ABB85B73108F08FC0EF8187
:100F5000F885E00FF11F54905428EC85E13009F03A
:100F600089C08B858150843108F084C0980121505C
:100F70003109C9019595879595958795E4E0F0E04D
:100F8000E81BF90BEC0DFD1D8081E82FF0E0EE0F62
:100F9000FF1FEE0FFF1F23703327E20FF31FED55E6
:100FA000FE4FE4915E2A21E0A1016C858B8505DD71
:100FB000582A20E0A3016C858B85FFDC582AFC852C
:100FC000F630C9F48B8585508F30A8F4D701189678
:100FD0002D913C91C90168EE73E0DFD4C8010497FC
:100FE000681779070CF0F4C0BB85B53021F41216F0
:100FF00013060CF4EDC0E0E0ECC0F7018689811126
:1010000003C0858D8150858FD7015596AC92559739
:1010100081E056968C93A70167E08B85B7DD7BCF87
:101020004420F9F08823E9F0E42DE80FFF27FF1FA3
:10103000982F94299E171F06A1F0D70156968C91E0
:101040005697811106C05D968C915D9781505D9693
:101050008C93F701A58A81E0868BA7016C858B852F
:1010600095DD482A3C85373009F456CF512C74CF92
:10107000E0E068CFE0E096CFEE81E13051F4EA8124
:10108000FB81E00FF11FE4918E2FCFDC0F5F1F4F2C
:1010900057CEFC85F11103C02B85283130F43B85F8
:1010A00020E0373119F42FEF05C021E04B854F3791
:1010B00009F4BFC05C85573009F0C1C06B85683149
:1010C00008F0206879817330E0F48B858952873489
:1010D00098F4C801889768E170E05FD4E985FA85E3
:1010E000E80FF91FD70112968C918617170631F079
:1010F0002CF0E256FF4F2491512C16C0EA5AFF4FB4
:10110000FACF8B8581508431B8F7F701358DC8014E
:10111000019765E070E041D43617170669F364F370
:10112000FC01EA51FF4F5490522AFB85E0E0F73171
:1011300028F4EF81F885E00FF11FE4915E2A2C85F9
:10114000213009F048C08B858150843108F043C0BC
:10115000980121503109C9019595879595958795F5
:10116000E4E0F0E0E81BF90BEC0DFD1D8081E82FB9
:10117000F0E0EE0FFF1FEE0FFF1F23703327E20F8B
:10118000F31FED55FE4FE4915E2A21E0A1016C852D
:101190008B8513DC582A20E0A3016C858B850DDC40
:1011A000582A3C85363009F026CF8B8585508F3004
:1011B00008F021CFD70118962D913C91C90168EE16
:1011C00073E0EBD3C8010497681779070CF40CCFD0
:1011D000E8EFE52959CFE0E0D7CF39DCEC85EF5FC8
:1011E000EC87FFEF8F1A9F0A29812F5F2983E83050
:1011F00009F07ECD2C960FB6F894DEBF0FBECDBFA2
:10120000DF91CF911F910F91FF90EF90DF90CF90E2
:10121000BF90AF909F908F907F906F905F904F9016
:101220003F902F9008954C85412C473009F08FCE88
:1012300073CE5C852FEF573009F05ECF42CF8981A6
:10124000833008F442CF58CF1F920F920FB60F92FF
:1012500011242F933F938F939F93AF93BF938091CC
:10126000610090916200A0916300B09164003091A0
:10127000600023E0230F2D3768F126E8230F029644
:10128000A11DB11D209360008093610090936200C6
:10129000A0936300B0936400809165009091660014
:1012A000A0916700B09168000196A11DB11D8093C7
:1012B000650090936600A0936700B0936800BF91AB
:1012C000AF919F918F913F912F910F900FBE0F90F3
:1012D0001F9018950196A11DB11DD4CFCF93DF9318
:1012E000CDB7DEB7E1970FB6F894DEBF0FBECDBF26
:1012F00083E08ABD83BF789489B7826089BF80E428
:101300008CBD8FEF8DBD87EC80BF87E886B9BA9A18
:10131000B89AC29AC09A8FE39CE90197F1F700C08E
:10132000000099DB88E781DB80E07FDB8EEA7DDBF4
:1013300085ED7BDB80E879DB88EA77DB8FE375DBA3
:1013400083ED73DB80E071DB80E46FDB8DE86DDBC8
:1013500084E16BDB81EA69DB88EC67DB8AED65DBC6
:1013600082E163DB81E861DB8FEC5FDB89ED5DDBD4
:1013700081EF5BDB8BED59DB80E457DB80E255DBF3
:1013800080E053DB8FEA51DB62DB8FE39CE901975E
:10139000F1F700C0000010E0812F62DB00E080E088
:1013A00044DB0F5F0038D9F752DB1F5F1830A1F71D
:1013B00060E081E070DB61E084E06DDB60E080E8AC
:1013C0006ADB60E083E867DB1B82772473947DE24D
:1013D000872E912CECE9CE2EDD24DA94F4E6AF2EA4
:1013E000B12C7A8E1A82198284E08E8F8E01015E72
:1013F0001F4F9E012B5D3F4FAE01455D5F4FBE010C
:101400006F5F7F4F81E04EDC41DB892B79F783E80A
:1014100025DA853F91404CF083E820DA8E3E9240F9
:1014200024F48AE08A8F97DB0CC083E817DA8E3EBB
:1014300092400CF05DC16DE784E66DDB6DE782E301
:101440006ADB69E7662E2A8D2B3008F021E02A8FAF
:101450002150330BC901880F991F6BE170E078D2DE
:1014600050E040E06FEF70E08D529A4FFC01E40FC6
:10147000F51FE491F9A9F11109C0E1115DC24A31EA
:1014800039F4611105C0642F660F660FE11106C0C3
:10149000711104C060E0742F770F770F4F5F5F4FBB
:1014A000E9AB4B31510511F77C8F6D8FC90165E0B8
:1014B00070E04ED29C01FC01E151F84FE491EC83C5
:1014C000FC01E051F84FE491ED83FC01EF50F84F3F
:1014D000849190E064E670E03BD29A878987F901B5
:1014E000EE50F84FE491EB8FF901ED50F84FE49195
:1014F0008E2F90E064E670E02BD29C878B871E864F
:101500001D86188A1F861A8A198A1C8A1B8A1E8AB7
:101510007D8A1F8A188E198E1B8267E380E5FBDAAD
:101520002FEF39EF40E0215030404040E1F700C05C
:10153000000067E38AE5EFDA8FEF99EFF0E0815082
:101540009040F040E1F700C0000067E384E6E3DA92
:101550006FEF83E7E0DA6FEF83E7DDDA47E3F42E3E
:10156000BE01655D7F4F89819A81D2D918AA2F84E7
:101570003888032C000C44085508C10157FE07C0E9
:1015800088279927DC0182199309A409B509BE01AE
:101590006B5D7F4FBDD9D201C1018827B7FD83950F
:1015A0009927AA27BB278AA72D843E84032C000CE9
:1015B00044085508C10157FE07C088279927DC0158
:1015C00082199309A409B509BE01615E7F4FA0D9B4
:1015D000D201C1018827B7FD83959927AA27BB2788
:1015E0008CA38E89811149C08F89811146C0888D55
:1015F000811143C06F857889CB0177FF04C08827AC
:101600009927861B970B29893A89820F931F9A8BFA
:10161000898B2D853E85F90137FF04C0EE27FF2712
:10162000E21BF30B4B895C894E0F5F1F5C8B4B8B6E
:10163000839748F09C811A8A198A161617060CF0AF
:1016400060C09F5F9C834332510570F04D81CF0194
:10165000B401A3D16F5F1C8A1B8A121613060CF00B
:1016600055C0461B642F6D838C818A3708F453C0A4
:101670006C828D81883308F0FD8280E8EFD88E3E41
:10168000924034F080E8EAD821E0863B93400CF0A9
:1016900020E02F8380E8E2D8853F914034F080E855
:1016A000DDD821E08E3E92400CF020E02887EED974
:1016B00021E0009709F020E02E832D8927252D8B2E
:1016C0004F8129853A85442309F443C01216130635
:1016D0000CF03FC0295031093A8729872F85388976
:1016E0002F5F3F4F25363105E4F4388B2F871BC021
:1016F00083E8B4D8863B93400CF09DCE8FEF8E8F5D
:1017000092CE672B09F49FCF91509CCF232B09F4E5
:10171000ABCF640FA8CF873108F0ABCF27E12C8384
:10172000A8CFB88AAF862D853E85892B09F0B0C039
:1017300089859A85181619060CF0AAC084979A878D
:1017400089872F5F3F4F25363105CCF43E872D87A3
:1017500018C04885442339F31216130624F729507C
:1017600031093A8729872F853889215031092C3949
:101770004FEF34070CF0B9CFD88ACF86D4CFBE86CE
:10178000AD8689859A851816190614F01A86198669
:101790008E01015E1F4F9E012B5D3F4FAE01455DE7
:1017A0005F4FBE016F5F7F4F80E07CDA898D988D3F
:1017B000893008F4B3C0992309F4A7C064E68FE622
:1017C000AAD99FEFF9EF20E09150F0402040E1F7D7
:1017D00000C000006AE58FE69ED93FEF49EF80E048
:1017E000315040408040E1F700C000006FEF80E9D9
:1017F00092D96FEF80E98FD96FEF80E98CD98A8D0C
:101800008F5F8A8F68EE73E080E090E057D88D8517
:101810009E859C01285E3F4FFF24F39421333105C0
:1018200008F0F12C0D964B9708F4F39429853A852E
:101830008B859C85281739070CF0F3947B828B816C
:10184000F81680F18E01015E1F4F9E012B5D3F4F08
:10185000AE01455D5F4FBE016F5F7F4F82E022DAD0
:101860006AE58BE458D98FE39CE90197F1F700C052
:1018700000006AE582E74FD96AE589E74CD964EF51
:1018800071E080E090E01AD88B818F5F8B83D7CF97
:10189000215031092C398FEF38070CF057CFDE86F5
:1018A000CD866FCF81508B838B8D90E029813A81DB
:1018B000280F391F6F2D70E04BD07901E80EF91E0B
:1018C00089819A818E159F05D0F401969A83898328
:1018D000BE01655D7F4F1CD818AA8E01015E1F4FA7
:1018E0009E012B5D3F4FAE01455D5F4FBE016F5FB7
:1018F0007F4F82E0D7D962E081E80DD9E1CF64EF74
:1019000071E080E090E0DAD79ECD60ED77E080E096
:1019100090E0D4D78E8D811196CD63CD2E89211183
:1019200003C02F89222311F08F5F898F992309F437
:1019300017CE8AE0898F14CE6111B0CDA4CD0024DA
:1019400080FD060E660F11F08695D1F7802D089563
:101950000024552704C0080E591F880F991F0097AF
:1019600029F076956795B8F37105B9F7802D952F15
:101970000895AA1BBB1B51E107C0AA1FBB1FA617D6
:10198000B70710F0A61BB70B881F991F5A95A9F728
:1019900080959095BC01CD01089597FB072E16F414
:1019A000009406D077FD08D0E4DF07FC05D03EF4B4
:1019B000909581959F4F0895709561957F4F0895FB
:0419C000F894FFCFC9
:00000001FF
